:020000040800F2
:100000000010002069210008750B0008770B00081C
:1000100000000000000000000000000000000000E0
:10002000000000000000000000000000790B000844
:1000300000000000000000007B0B00087D0B0008A2
:10004000B921000800000000B9210008B92100080A
:10005000B9210008B9210008B9210008B921000818
:1000600000000000B9210008B9210008B9210008EA
:10007000B9210008B9210008B921000800000000DA
:10008000B92100080000000000000000B9210008AC
:1000900000000000B9210008B9210008B9210008BA
:1000A00000000000B921000800000000B92100088C
:1000B0000000000000000000000000000000000040
:1000C0000023C25C0133002AFBD1581E7047000098
:1000D000002243088B4274D303098B425FD3030A87
:1000E0008B4244D3030B8B4228D3030C8B420DD39A
:1000F000FF22090212BA030C8B4202D31212090228
:1001000065D0030B8B4219D300E0090AC30B8B4265
:1001100001D3CB03C01A5241830B8B4201D38B0313
:10012000C01A5241430B8B4201D34B03C01A5241B8
:10013000030B8B4201D30B03C01A5241C30A8B42FB
:1001400001D3CB02C01A5241830A8B4201D38B02E6
:10015000C01A5241430A8B4201D34B02C01A52418A
:10016000030A8B4201D30B02C01A5241CDD2C309FC
:100170008B4201D3CB01C01A524183098B4201D378
:100180008B01C01A524143098B4201D34B01C01A63
:10019000524103098B4201D30B01C01A5241C308DB
:1001A0008B4201D3CB00C01A524183088B4201D34A
:1001B0008B00C01A524143088B4201D34B00C01A36
:1001C0005241411A00D20146524110467047FFE7A2
:1001D00001B5002000F006F802BDC0460029F7D0A6
:1001E00076E770477047C0468446100062468C46EA
:1001F0001900634600E0C0461FB503F01FFB00284E
:1002000001D40021C8421FBD10B503F063FA40427B
:10021000013010BD10B503F011FB002801DB0020F8
:1002200010BD012010BDC04610B503F007FB00282B
:1002300001DD002010BD012010BDC04610B503F047
:100240008DFA002801DC002010BD012010BDC04641
:1002500010B503F083FA002801DA002010BD012058
:1002600010BDC0461C2101231B04984201D3000C81
:1002700010391B0A984201D3000A08391B09984219
:1002800001D30009043902A2105C40187047C0462F
:10029000040302020101010100000000000000004F
:1002A00010B5064C2378002B07D1054B002B02D04C
:1002B000044800E000BF0123237010BD0C000020A3
:1002C0000000000018390008044B10B5002B03D0C3
:1002D0000349044800E000BF10BDC0460000000014
:1002E000100000201839000810B586B01422002133
:1002F00001A801F0B3FF0F4B5A69802189020A431C
:100300005A615B690B400093009B9024E405002236
:100310001821200000F0C6FD18230193173B02931B
:1003200000230393049301A9200000F0F7FC06B01A
:1003300010BDC04600100240034B1A6800235362F0
:10034000536A8342FCD37047B000002070B50500AB
:10035000002404E0FA208000FFF7EEFF0134AC42F5
:10036000F8D370BD72B6C046FDE7000010B5104866
:10037000104B036082235B00436000238360C02234
:100380009200C26003614361013AFF3A8261C36136
:10039000036243628362FA3AFF3AC262036308333C
:1003A000436301F067FA002800D110BDFFF7DAFFC0
:1003B000F80000200030014010B50B480B4B0360E3
:1003C00096231B02436000238360C36003610C22F9
:1003D00042618361C3610362436201F08FFE0028C2
:1003E00000D110BDFFF7BEFF2800002000380140FB
:1003F00010B50848084B036000230371C360036114
:100400000133836100F05EFC002800D110BDFFF7CE
:10041000A9FFC0465C0100200030024010B5094829
:10042000094B03600723436000238360074AC260CF
:100430000361836101F03AFC002800D110BDFFF791
:1004400091FFC046B000002000200040FFFF0000E8
:1004500000B595B03022002108A801F0FFFE10225F
:10046000002104A801F0FAFE10220021684601F0E4
:10047000F5FE02230893013B0B930F330C9308A85E
:1004800000F016FD002816D10723049300230593DE
:1004900006930793002104A800F082FF00280CD1E6
:1004A0000123009300230293684601F029F80028F5
:1004B00005D115B000BDFFF755FFFFF753FFFFF75C
:1004C00051FF000030B595B000F086FBFFF7C0FF8C
:1004D000FFF70AFFFFF74AFFFFF76EFFFFF788FFFE
:1004E000FFF79CFF1D4801F077FB1D4800F0F2F973
:1004F000002801D1FFF736FF1A4800F0B9F80028AC
:1005000001D1FFF72FFF0B2000F084F9042000F049
:1005100097F9002414490E2204A801F0D9FE3222D2
:1005200000211E20684401F099FE651C0A2201A9E1
:10053000200001F05AFE01A904A801F097FE04A8CA
:10054000FFF7BEFDC1B204A800F01CFA00F054FA97
:10055000FA208000FFF7FAFE2C00DBE7B000002055
:10056000F8000020000059443039000810B5044B51
:100570001860902001221021C00500F093FC10BDEE
:100580007801002000B585B0094B1B786A461373CB
:1005900013721072074B1868FA239B000093012313
:1005A00003AA02A901F0E8F96B46187B05B000BD6B
:1005B000403900087801002070B504009025ED0551
:1005C00000221021280000F06DFC7F202040FFF762
:1005D000D9FF0020FFF7D6FF0400012210212800D8
:1005E00000F060FC200070BD70B504000D00902686
:1005F000F60500221021300000F054FC802040421B
:100600002043C0B2FFF7BEFF04002800FFF7BAFF87
:1006100001221021300000F045FC200070BDF0B533
:10062000C64600B504000E001500902000221021DF
:10063000C00500F037FC802040422043C0B2FFF7E5
:10064000A1FF804605E0771C3078FFF79BFF25006F
:100650003E006C1EE4B2002DF5D190200122102145
:10066000C00500F01FFC404680BCB846F0BD00004D
:1006700010B502F0E7FF00220C4B02F053F9002204
:100680000B4B01F04DFE01F02DFE0400010CC9B230
:100690000720FFF7A9FF210AC9B20820FFF7A4FF2E
:1006A000E1B20920FFF7A0FF012010BD80842E4198
:1006B00080844E4010B504000120FFF77DFF1C230D
:1006C00001009943C9B21C20204001430120FFF7DB
:1006D0008BFF2720FFF770FF0006FAD50120FFF7F8
:1006E0006BFF10BD10B50D4B1B78022B0BD00C4BC4
:1006F0001B785BB2112B07DC0A4B1878FFF7DAFF87
:10070000064B02221A7010BD55215A20FFF76CFFCC
:1007100070215C20FFF768FFEEE7C0467E010020F5
:100720007F0100208101002010B50E4B1B78032BA8
:100730000ED00D4B1B785BB2112B0ADC002125205B
:10074000FFF752FF0C20FFF7B5FF064B03221A708C
:1007500010BD5D215A20FFF747FF7C215C20FFF789
:1007600043FFEBE77E0100207F01002010B51F4B07
:10077000187000291FD0023001DAFE221A701B4BBC
:10078000002159560D2906DC12311F231940402340
:100790001943C9B225E0112906DD0B311F23194089
:1007A00060231943C9B21CE00E311F231940602396
:1007B0001943C9B215E0123002DA0C4BEE221A705E
:1007C0000A4B1B785BB20D2B02DD084B0D221A7011
:1007D000064B1B7812331F221340802149421943D4
:1007E000C9B21120FFF700FF10BDC0467F010020F5
:1007F00010B50400052201000220FFF710FF611D63
:1008000002221920FFF70BFFE1793720FFF7ECFEFA
:1008100010BD000000B583B01B2802D9002003B032
:1008200000BDC000054941180822684601F050FD8E
:100830006846FFF7DDFF0120F1E7C04644390008B4
:1008400010B50400010A2C20FFF7CEFEE1B22D20E6
:10085000FFF7CAFE10BD70B505000C002E20FFF793
:10086000ABFE0600002D03D0002C01D0042C0BD9C8
:100870007F21314038239943013CE4002143C9B230
:100880002E20FFF7B1FE70BD220029002F20FFF7B8
:10089000C6FE80235B423343D9B2EBE710B5011E9D
:1008A0000DD010223E20FFF7BAFE3D20FFF784FE58
:1008B00001231843C1B23D20FFF796FE10BD3D2035
:1008C000FFF77AFE01239843C1B23D20FFF78CFE6B
:1008D000F4E7000030B583B004009025ED05012257
:1008E0000821280000F0DEFA6420FFF72FFD002227
:1008F0000821280000F0D6FA6420FFF727FD1D4BE1
:1009000004221A702000FFF731FE1020FFF754FE7A
:10091000194B1870242802D0002003B030BDFFF717
:10092000E1FE8F213C20FFF75FFE30216F20FFF7B3
:100930005BFE55215A20FFF757FE70215C20FFF720
:1009400053FE01A80D4B03800221FFF784FF122004
:10095000FFF760FF0420FFF773FF0948FFF788FEE9
:100960000020FFF79BFF00210D20FFF7FFFE012075
:10097000D3E7C04681010020800100202DD4FFFF75
:100980000000D943F8B506000C003C2901D900202D
:10099000F8BDFFF7A7FE902000221021C00500F04F
:1009A00081FA8020FFF7EEFD201DC0B2FFF7EAFDBF
:1009B000FF20FFF7E7FDFF20FFF7E4FD0020FFF732
:1009C000E1FD0020FFF7DEFD05E0771C3078FFF742
:1009D000D9FD2C003E00651EEDB2002CF5D1902013
:1009E00001221021C00500F05DFAFFF79DFE0120F5
:1009F000FFF7ACFC0120CBE710B502E00120FFF7C8
:100A0000A5FC2820FFF7D8FD0007F7D5FFF76AFE01
:100A1000024A138801331380012010BD7C0100209D
:100A200082B00A4B996901221143996199690A4080
:100A30000092009ADA69802149050A43DA61DB698C
:100A40000B400193019B02B07047C046001002406A
:100A500082B00268074B9A4201D002B07047064A42
:100A60005169402319435161526913400193019B1D
:100A7000F3E7C046003002400010024010B588B0D5
:100A800004001422002103A801F0E8FB2268124BA5
:100A90009A4201D008B010BD104B9A6980214901DB
:100AA0000A439A619A690A400192019A5A6980211F
:100AB00089020A435A615B690B400293029BE0235F
:100AC0000393DE3B049301330693902003A9C005F2
:100AD00000F024F9DEE7C04600300140001002407B
:100AE00082B00268074B9A4201D002B07047064BB1
:100AF000DA69802149000A43DA61DB690B4001931E
:100B0000019BF2E7002000400010024010B588B0C1
:100B100004001422002103A801F0A0FB2268134B5B
:100B20009A4201D008B010BD114B9A698021C901C9
:100B30000A439A619A690A400192019A5A6980218E
:100B400089020A435A615B690B400293029B0423AA
:100B500003930E330493113B0593032206920793EC
:100B6000902003A9C00500F0D9F8DBE70038014068
:100B700000100240FEE7FEE77047704710B500F036
:100B80003BF810BD7047000010B504000F4B1978FA
:100B9000FA208000FFF79CFA01000D4B1868FFF760
:100BA00097FA00F08BF800280DD1032C01D9012011
:100BB0000AE0013000222100404200F07BF8054BA2
:100BC0001C60002000E0012010BDC0460400002091
:100BD000000000200800002010B5064A136810210C
:100BE0000B4313600320FFF7CFFFFFF719FF00202F
:100BF00010BDC04600200240034A1168034B1B7819
:100C00005B1813607047C046840100200400002078
:100C1000014B18687047C0468401002070B5002859
:100C200011DB8308134DC0339B005C590322104035
:100C3000C000FC3216008640B44389010A4082405D
:100C400022435A5170BD0F230340083B9B080633D3
:100C50009B00094A944663445C6803221040C0002C
:100C6000FC3215008540AC4389010A408240224392
:100C70005A60E7E700E100E000ED00E00138802382
:100C80005B0498420FD2094A50600948036A1B026C
:100C90001B0AC02109060B4303620023936007333C
:100CA0001360002070470120FCE7C04610E000E020
:100CB00000ED00E010B5FFF7B1FF10BD10B5FFF774
:100CC000DDFF10BD10B5041E25D0437D002B1AD0CA
:100CD000022363752379002B19D123680122524224
:100CE0001A612268936860218B43E1680B4393602B
:100CF0002268936880218B4321690B439360012311
:100D00006375002010BD0375FFF7A2FEE0E72368BE
:100D1000A2681A61E5E70120F4E70000F0B583B0AE
:100D2000002356E086685F000324BC40A643CC68DD
:100D3000BC4034438460446894434E6836090122C1
:100D400032409A402243426053E0DE080836B60043
:100D5000375805321A4092000F249440A7430C697B
:100D6000944022003A43325056E0032600E0002629
:100D7000A64034003C4302329200444E9451444A0F
:100D80009768EA433E00AE434C68E40201D53E005A
:100D90002E433F4CA660E7683E0016404C68A40214
:100DA00001D53E002E433A4CE66067683E0016408F
:100DB0004C68A40301D53E002E43354C666026687E
:100DC00032404C68E40301D52A003243304C2260A3
:100DD00001330C682200DA4056D001229A402500E7
:100DE00015401442F4D04E6803243440013C012CD9
:100DF00098D94C6803222240032A08D0C4685E00B8
:100E00000322B24094438A68B2402243C2604C68D5
:100E100003222240022A98D004685E0003221700B1
:100E2000B740BC434F683A40B240224302604C682E
:100E3000C02292021442CBD0164CA669012216435E
:100E4000A661A46922400192019A9A08941CA40008
:100E50000E4EA75903241C40A4000F26A640B743FA
:100E60009026F605B04282D00B4EB04208D00B4E11
:100E7000B04207D00A4EB04200D176E7052677E7A8
:100E8000012675E7022673E703B0F0BD00000140BC
:100E9000000401400010024000040048000800481F
:100EA000000C0048002A01D0816170478162FCE794
:100EB00070B582B0041E00D12EE20368DB0726D590
:100EC000AE4B5A680C231340042B18D0AB4B5A6816
:100ED0000C231340082B0ED06368012B3CD0002B51
:100EE00051D1A64B1A68A6490A401A601A68A5494A
:100EF0000A401A6036E0A14B5B68DB03ECD59F4BE0
:100F00001B689B0303D56368002B00D107E22368AD
:100F10009B0772D5994B5B680C221A425DD0974BA8
:100F20005A680C231340082B53D0E368002B00D1E0
:100F300085E0924A136801210B431360FFF768FEB6
:100F400005008E4B1B689B0770D4FFF761FE401BAA
:100F50000228F6D90320E0E1884A116880235B0269
:100F60000B4313606368002B25D0FFF751FE05008B
:100F7000824B1B689B03CAD4FFF74AFE401B6428C0
:100F8000F6D90320C9E1052B09D07C4B1A687C49AE
:100F90000A401A601A687B490A401A60E2E7774BF8
:100FA00019688022D2020A431A601968802252020C
:100FB0000A431A60D6E7FFF72BFE05006F4B1B684C
:100FC0009B03A4D5FFF724FE401B6428F6D9032019
:100FD000A3E16A4B5B68DB03A7D4684B1B689B07E4
:100FE00003D5E368012B00D09BE164490B68F8222C
:100FF00093432269D20013430B6023681B0744D537
:10100000E369002B2ED05D4A536A01210B435362E2
:10101000FFF7FEFD0500594B5B6A9B0735D4FFF7D0
:10102000F7FD401B0228F6D9032076E153490B68EF
:10103000F82293432269D20013430B60DDE74F4A45
:10104000136801218B431360FFF7E2FD05004B4B52
:101050001B689B07D1D5FFF7DBFD401B0228F6D9A3
:1010600003205AE1454A536A01218B435362FFF73B
:10107000CFFD0500414B5B6A9B0706D5FFF7C8FD16
:10108000401B0228F6D9032047E123685B0700D400
:1010900080E03A4BDB69DB001DD4384BDA698021F4
:1010A00049050A43DA61DB690B400193019B012585
:1010B000354B1B68DB0510D5A368012B21D0002B15
:1010C00036D12E4B1A6A01218A431A621A6A0331F9
:1010D0008A431A621AE00025EAE72B4A1168802346
:1010E0005B000B431360FFF793FD0600264B1B6864
:1010F000DB05E1D4FFF78CFD801B6428F6D90320C3
:101100000BE11E4A136A01210B431362A368002BF3
:1011100024D0FFF77DFD0600184B1B6A9B0737D4D0
:10112000FFF776FD801B194B9842F5D90320F4E0B8
:10113000052B09D0114B1A6A01218A431A621A6AD7
:1011400003318A431A62E1E70C4B1A6A04210A430D
:101150001A621A6A03390A431A62D7E7FFF758FD81
:101160000600064B1B6A9B0712D5FFF751FD801B3B
:10117000064B9842F5D90320CFE0C046001002404C
:10118000FFFFFEFFFFFFFBFF007000408813000021
:10119000012D33D02368DB0610D56369012B33D0D2
:1011A000053351D1654A536B04218B435363536B11
:1011B000F4318B43A169C9000B435363236A002BAD
:1011C00000D1B0E05D4A51680C220A40082A00D1E3
:1011D0008AE0022B4FD0594A136859490B401360DB
:1011E000FFF716FD0400554B1B689B017AD5FFF7EE
:1011F0000FFD001B0228F6D903208EE04F4AD36969
:1012000050490B40D361C5E74C4B5A6B04210A434C
:101210005A635A6B03390A435A63FFF7F9FC050016
:10122000464B5B6B9B0706D4FFF7F2FC401B022882
:10123000F6D9032071E041494B6BF8229343A26930
:10124000D20013434B63B9E73C4B5A6B04210A436A
:101250005A635A6B03398A435A63FFF7D9FC050076
:10126000364B5B6B9B07A9D5FFF7D2FC401B0228CE
:10127000F6D9032051E0314A136831490B4013601D
:10128000FFF7C6FC05002D4B1B689B0106D5FFF739
:10129000BFFC401B0228F6D903203EE0274BDA6A48
:1012A0000F218A43E16A0A43DA625A6826490A40F2
:1012B000A16A606A01430A435A6019688022520495
:1012C0000A431A60FFF7A4FC04001C4B1B689B0137
:1012D00006D4FFF79DFC001B0228F6D903201CE072
:1012E00000201AE0002018E0012B1ED0134B5A6892
:1012F000D86A80235B021340616A8B4217D10F23A7
:101300000340E16A8B4214D1F0239B031A40A36A85
:101310009A4210D1002000E0012002B070BD0120EF
:10132000FBE70120F9E70020F7E70120F5E70120BE
:10133000F3E70120F1E70120EFE7C046001002408B
:10134000FFFFFFFEFFFFFFEFFFFFC2FF10B5104BD7
:101350005A680C231340082B01D00E4810BD910C85
:10136000073319400C48445C0949C96A0B400B49D2
:10137000C95CD20304D50748FEF7AAFE6043EDE737
:101380006201121B93019B1ADB001B191802E5E78F
:101390000010024000127A00443A0008343A000873
:1013A00070B504000D00002800D17EE0434B1A68A0
:1013B000012313408B420AD240490B680122934318
:1013C0002B430B600B681A40AA4200D06FE02368E1
:1013D0009A070ED55B0705D5394A5168E023DB0033
:1013E0000B435360364A5368F0218B43A1680B438B
:1013F00053602368DB072DD56368012B1ED0022BB9
:1014000022D02F4A1268920753D52D494A680320EB
:10141000824313434B60FFF7FBFB0600284B5B68DE
:101420000C221A4063689B009A4213D0FFF7F0FB2E
:10143000801B244B9842F1D9032035E0204A1268E2
:101440009203E2D401202FE01D4A12689201DCD4FD
:10145000012029E0194B1A6801231340AB4209D936
:1014600016490B68012293432B430B600B681A400B
:10147000AA4220D123685B0706D5114A5368124956
:101480000B40E1680B435360FFF760FF0C4B5A6859
:1014900012090F2313400D4AD35CD8400C4B18603F
:1014A0000320FFF771FB002070BD0120FCE7012045
:1014B000FAE70120F8E70120F6E7C04600200240E5
:1014C0000010024088130000FFF8FFFF243A0008D4
:1014D00000000020014B18687047C0460000002043
:1014E00010B5FFF7F7FF044B5A68120A07231340A1
:1014F000024AD35CD84010BD001002401C3A0008DC
:1015000070B582B004000368DB0339D53E4BDB695C
:10151000DB004BD43C4BDA69802149050A43DA6190
:10152000DB690B400193019B0125384B1B68DB05F0
:101530003ED5354B1A6AC0239B00110019401A4250
:1015400015D06368C022920013408B420FD02E4BFF
:101550001A6A2F4911401E6A8020400230431862E7
:10156000186A2C4E304018621962D20734D4264AC9
:10157000136A27490B4061680B431362012D3AD06F
:101580002368DB0706D5204A136B03218B43A16830
:101590000B43136323689B0632D51B4A136B102140
:1015A0008B43E1680B43136300202AE00025BCE76E
:1015B000164A116880235B000B431360FFF728FB7A
:1015C0000600124B1B68DB05B3D4FFF721FB801B21
:1015D0006428F6D9032014E0FFF71AFB06000A4B33
:1015E0001B6A9B07C3D4FFF713FB801B0A4B98426F
:1015F000F5D9032005E0D36908490B40D361BFE763
:10160000002002B070BDC0460010024000700040D3
:10161000FFFCFFFFFFFFFEFF88130000FFFFFFEF4F
:10162000F0B5D6464F464646C0B582B006000D001E
:1016300090461F00FFF7ECFA0A9B181A8146B9443E
:10164000FFF7E6FA82462C4B1B685B011B0D4A46EE
:101650005343019333689C682C40641B63425C4194
:10166000444542D07B1CF5D0FFF7D2FA5346C01A4E
:10167000484508D2019A002A00D04A46019B013B06
:1016800001939146E6E732685368E0218B4353604B
:10169000726882235B009A420CD0B26A80239B015D
:1016A0009A4216D05D230122F254013B0022F254EB
:1016B00003201BE0B36880221202934203D08022F1
:1016C000D2009342E9D13268136840218B43136002
:1016D000E3E73268136809490B4013603268116808
:1016E00080239B010B431360DCE7002002B0E0BCC9
:1016F000BA46B146A846F0BD00000020FFDFFFFF5C
:10170000F0B5DE4657464E464546E0B583B0070085
:101710000D00160098466B460022DA70FFF778FA43
:101720000C9B181A40448146FFF772FA82463B68C8
:101730009B46344B1B689A00D218D3009B1A1B0D92
:101740004A465343019302E04346013311D13B68BB
:101750009C682C40B4424DD0C023DB009D42F3D1A5
:10176000002EF1D15B461B7BDBB26A46D370D37887
:10177000EAE7FFF74DFA5346C01A484508D2019AE6
:10178000002A00D04A46019B013B01939146DEE7C7
:101790003A685368E0218B4353607A6882235B0088
:1017A0009A420CD0BA6A80239B019A4216D05D23DC
:1017B0000122FA54013B0022FA5403201BE0BB68CB
:1017C00080221202934203D08022D2009342E9D1B8
:1017D0003A68136840218B431360E3E73A68136863
:1017E00009490B4013603A68116880239B010B4341
:1017F0001360DCE7002003B0F0BCBB46B246A9464C
:10180000A046F0BD00000020FFDFFFFF70B582B0F2
:1018100004000D001600C02100922B000022490197
:10182000FFF76EFF002818D100962B0000228021C0
:101830002000FFF7F5FE002816D1C02100962B00EE
:101840000022C9002000FFF75BFF00280AD0236EAA
:10185000202213432366032004E0236E2022134337
:101860002366032002B070BD236E2022134323663B
:101870000320F7E770B5041E00D178E0436A002B1F
:1018800007D142680533FF339A4205D00023C36174
:1018900002E00023036143610023A3625D33E35C44
:1018A000002B5AD05D230222E254226813684021A3
:1018B0008B431360E368E022D200934254D90022A4
:1018C000F02109018B4205D0E021C9008B4201D0F3
:1018D0000023A3626368822149000B40A168842031
:1018E000000201400B432069022101400B43606963
:1018F000012108400343A0698025AD00284003432F
:10190000E569382028400343256A802028400343A6
:10191000A06A8025AD012840256803432B60608BB9
:1019200004230340656A102028400343656B0820A8
:1019300028400343E068F0252D0128400343206838
:10194000134343602268D3690A480340D3610023EC
:1019500023665D33E154002070BD5C330022E25405
:101960002000FFF78BF89DE780225201A8E70120B5
:10197000F2E7C046FFF7FFFFF0B583B00400009127
:1019800001921E00089D5C23C35C012B00D11EE167
:101990005C230122C254FFF73BF907005D23E35C9F
:1019A000D9B26268012B0BD082235B009A4200D02F
:1019B000FBE0A368002B00D0FDE0042900D0FCE090
:1019C000009B002B00D1FAE0019B002B00D1F8E036
:1019D000002E00D1F7E05D23E35C042B02D05D23F1
:1019E0000522E25400232366019A22644622A6526D
:1019F000023AA652009AA263E687A687E3642365AB
:101A0000E268E023DB009A4223D9226853687149D7
:101A10000B40536023681A68520603D41A684021A9
:101A20000A431A60E268E023DB009A4258D96368EF
:101A3000002B01D0012E0AD1A26B23681288DA6034
:101A4000A36B0233A363E38F013B9BB2E3870126C1
:101A50002DE02268516880235B010B435360D9E776
:101A6000A36B1B88D360A36B0233A363E38F013B9B
:101A70009BB2E387002622689368DB0710D54623D4
:101A8000E35A9BB2002B0BD0D268236C1A80236CD4
:101A9000023323644622A35A013B9BB2A352012680
:101AA000FFF7B6F8C01BA84201D36B1C13D1E38F1C
:101AB0009BB2002B04D14633E35A9BB2002B63D078
:101AC000226893689B07D6D5E38F9BB2002BD2D0B8
:101AD000012ED0D1C4E75D230122E254032065E04A
:101AE0006368002B01D0012E0AD1A26B2368127803
:101AF0001A73A36B0133A363E38F013B9BB2E387AC
:101B000001261DE022689368DB0710D54623E35ABF
:101B10009BB2002B0BD0236C127B1A70236C013309
:101B200023644622A35A013B9BB2A3520126FFF72E
:101B30006FF8C01BA84201D36B1C20D1002D1ED012
:101B4000E38F9BB2002B04D14633E35A9BB2002BA8
:101B50001AD0226893689B07D4D5E38F9BB2002BE1
:101B6000D0D0012ECED1A36B1B781373A36B01339E
:101B7000A363E38F013B9BB2E3870026C2E75D23AB
:101B80000122E254032011E03A0029002000FFF76F
:101B90003DFE002802D0202323660120236E002B67
:101BA00013D15D330122E25400E002205C230022C5
:101BB000E25403B0F0BD0220F8E70220F6E701206E
:101BC000F4E70120F2E70120F0E70120EEE7022030
:101BD000EFE7C046FFEFFFFF3D23C35C012B1AD1A7
:101BE0003C330222C25403680D4A934208D00D4A86
:101BF000934205D01A6801210A431A6000200BE0C5
:101C0000996807220A40062A07D01A6801210A4368
:101C10001A60002000E0012070470020FCE7C04669
:101C2000002C01400004004003681A4A904202D090
:101C3000194A904203D1702293434A681343154ACC
:101C400090420BD0144A904208D0144A904205D0DA
:101C5000134A904202D0134A904203D1124A1340D1
:101C6000CA681343802293434A69134303608B6815
:101C7000C3620B688362074B984205D0084B9842B9
:101C800002D0084B984201D10B69036301234361E1
:101C90007047C046002C0140000400400020004076
:101CA0000044014000480140FFFCFFFF70B5041EE6
:101CB00026D03D23C35C002B1CD03D250223635559
:101CC000210001C9FFF7B0FF01234622A354083ABF
:101CD000A3540132A3540132A3540132A35401325C
:101CE000A3540132A3540132A3540132A3546355C7
:101CF000002070BD3C330022C254FEF7F1FEDCE749
:101D00000120F6E710B5EFF3108C012282F3108862
:101D100001680B68124C23400B608CF31088EFF3C2
:101D2000108C82F3108801688B6893438B608CF36E
:101D30001088036E012B06D080232022C25000237E
:101D40000366836610BDEFF3108183F31088026889
:101D500013683234FF34A343136081F31088EBE738
:101D6000DFFEFFFF10B50400836802691343426978
:101D70001343C269134301680A6848480240134389
:101D80000B602268536846490B40E1680B4353607F
:101D9000A369226A1A4321688B68424803401343AF
:101DA0008B60414B1A6B03231340022B0AD005D8DA
:101DB000002B16D0012B16D1033304E0032B14D1D2
:101DC000013B00E00823E0698022120290420ED01D
:101DD000042B58D039D8002B3ED0022B33D13348B6
:101DE0003EE00023EFE71023EDE71023EBE7042BA1
:101DF00026D007D8002B09D0022B01D12B4809E0AF
:101E000001203CE0082B05D0012038E0FFF768FBFB
:101E100000283BD0400061684B08C018FEF758F915
:101E20000200103A224B9A4232D882B20F239A43D0
:101E30004008083B034013432268D36000201EE0A3
:101E4000FFF784FAE4E7012019E0082B02D1802093
:101E5000000205E0012012E0FFF742FB002819D044
:101E600061684B081818FEF733F90200103A104B5E
:101E70009A4211D823680004000CD8600020002387
:101E8000A366E36610BDFFF761FAE7E70020F6E717
:101E90000120F4E70020F2E70120F0E7F369FFFFFB
:101EA000FFCFFFFFFFF4FFFF0010024000127A0097
:101EB000EFFF0000436ADB0706D5026853682C4930
:101EC0000B40816A0B435360436A9B0706D5026847
:101ED000536828490B40C16A0B435360436A5B0750
:101EE00006D50268536824490B40016B0B435360CD
:101EF000436A1B0706D50268536820490B40416BB3
:101F00000B435360436ADB0606D5026893681C499D
:101F10000B40816B0B439360436A9B0606D50268B6
:101F2000936818490B40C16B0B439360436A5B068F
:101F30000BD50268536814490B40016C0B43536086
:101F4000026C80235B039A420AD0436A1B0606D5C3
:101F5000026853680D490B40816C0B435360704716
:101F6000026853680A490B40416C0B435360ECE72D
:101F7000FFFFFDFFFFFFFEFFFFFFFBFFFF7FFFFFF8
:101F8000FFEFFFFFFFDFFFFFFFFFEFFFFFFFF7FFA9
:101F9000FFFF9FFFF8B5CE46474680B506000D000F
:101FA00017009946089B98463368DC692C40641BEF
:101FB00063425C41BC422FD143460133F4D0FEF76B
:101FC00027FE4B46C01A40452BD84346002B2AD04B
:101FD00033681A685207E7D5DA69120710D4DA694C
:101FE0001205E1D5802212011A623000FFF78AFE45
:101FF00084232022F2500C3B0022F25403200CE0F8
:1020000008241C623000FFF77DFE8423F4500C3B53
:102010000022F254012000E00020C0BCB946B046C6
:10202000F8BD0320F9E70320F7E7000030B583B0DF
:10203000040084230022C250FEF7EAFD0500236855
:102040001B681B070FD423681B685B0729D4202358
:10205000E3678022A350002323666366083AA354F3
:10206000002003B030BD8021224B009303000022EA
:1020700089032000FFF78EFF0028E4D0EFF31081E2
:10208000012383F310882268136880208343136040
:1020900081F310882023E36758330022E2547D380F
:1020A000DFE78021134B00932B000022C90320009F
:1020B000FFF770FF0028CAD0EFF31080012282F3EF
:1020C000108821680B680C4D2B400B6080F3108842
:1020D000EFF3108082F3108821688B6893438B6044
:1020E00080F3108880231F32E250083B0022E25424
:1020F0000320B6E7FFFFFF01DFFEFFFF10B5041E60
:102100002ED0C36F002B21D02423E36722681368ED
:1021100001218B4313602000FFF724FE012814D017
:10212000636A002B18D1226853680E490B40536034
:102130002268936808210B4393602268136807396B
:102140000B4313602000FFF771FF10BD78330022AE
:10215000C254FEF7DBFCD7E72000FFF7ABFEE2E757
:102160000120F2E7FFF7FFFF0D488546FEF70AFD65
:102170000C480D490D4A002302E0D458C4500433E2
:10218000C4188C42F9D30A4A0A4C002301E01360B8
:102190000432A242FBD300F077F8FEF793F9FEE792
:1021A00000100020000000200C000020C43A0008AD
:1021B0000C00002088010020FEE7931E10B50C00E3
:1021C000222B04D900231C000B70200010BD0A2A0A
:1021D00009D1002807DA2D230B7001214042611834
:1021E00000F008F8F1E70021F9E710B5FFF7E5FF87
:1021F00010BD0000F0B50C0016008DB025220700C0
:10220000154902A800F064F8621EB31E0025019271
:10221000222B04D925702C0020000DB0F0BD380011
:102220003100FDF7DBFF0B0002AAD35C019A290005
:10223000013553553B0007009E42F0D90023220090
:1022400063550B00C81A8342E6DD1078E55C157013
:10225000E0540132013BF5E7543A000803008218CC
:10226000934200D1704719700133F9E7020010B5AD
:10227000137814000132002BFAD1CA5CE254013306
:10228000002AFAD110BD000070B500260C4C0D4D8F
:10229000641BA410A64209D1002601F03DFB0A4CA4
:1022A0000A4D641BA410A64205D170BDB300EB58C3
:1022B00098470136EEE7B300EB5898470136F2E74E
:1022C000BC3A0008BC3A0008C03A0008BC3A000812
:1022D000002310B59A4200D110BDCC5CC454013328
:1022E000F8E7000070B500220C4B04000D00FDF76C
:1022F000AFFF002804D12000290001F067F970BD6C
:10230000064B00222000290000F0D8FD01F05EF904
:1023100080231B069C466044F1E7C0460000E04174
:10232000F0B5DE46454657464E46E0B587B00092CA
:1023300001930B031B0B9B46CA0F4B000400804606
:102340005B0D029200D189E08A4A934238D0594607
:10235000420FC9000A43802109041143C20090467C
:10236000854A894692469A44002300240393009E9E
:10237000019F3B031B0B9B467B0030005B0DFD0F59
:10238000002B00D19EE07B4A934200D18CE059465D
:10239000720FC9000A438021090411438B46764914
:1023A000F2008C4651466344CB1A9A460021029EA5
:1023B0006E400F2C00D9EFE0704BA4001B599F46D4
:1023C0005A460243914600D09DE09A460223904629
:1023D00008240393CBE72E00002200249046654B8F
:1023E0001B052343F60733434046190007B0F0BCF2
:1023F000BB46B246A946A046F0BD002200230024F9
:102400009046EDE7CB464246029D03990229E2D071
:10241000032900D143E22E000129EED0584B53444A
:10242000002B00DC93E1510700D04AE25946C90174
:1024300006D55946534B194080238B46DB00534445
:1024400051498B42C8DC5946D208490711435A46C4
:102450005B0554028846240B5B0DC1E75B460343D2
:10246000994661D05B46002B00D1C2E15846FDF78A
:10247000F9FE0B235B429C460200844466461D2302
:102480009B1B260011005846DE4008398840330067
:102490000343994623008B4098463C4B00249B1AEB
:1024A0009A460023039362E75A46009B1A43384B2F
:1024B0009C46E244002A32D102231C43002302211D
:1024C0009B4674E75A46009B1A4322D05B46002B7A
:1024D00000D1A0E15846FDF7C5FE020003000B3A0B
:1024E0001D27009EBA1A19005846D6400839884060
:1024F000320002439346009A8A40264953448A4652
:1025000000219A4453E79A460323D9460C240393A7
:102510002DE701231C43002301219B4647E70323AA
:10252000320003211C4342E7002398469A460133B8
:10253000042403931BE700238024984600260D4BB8
:1025400024034DE780244B462403234209D05B46F5
:10255000234206D11C4324032E009046054B240B36
:102560003EE780244B4624031C432403029E014B78
:10257000240B35E7FF07000001FCFFFF7C3A000851
:10258000FF030000FFFFFFFEFE0700000DFCFFFF42
:1025900001F8FFFFF3030000CB4500D220E100D19A
:1025A0001BE101235B429C46444648460027E24427
:1025B0005B46150E1B021D43190C2B0412020095DD
:1025C0001D0C914602910395FDF708FE02006A4337
:1025D0000B04210C804619438A420ED9009D012329
:1025E000AC465B4261449C46E0448D4205D88A4239
:1025F00003D9AC46831E98466144881A0299FDF7B8
:10260000EDFD039A240442430904240C03000C4307
:10261000A24206D90099013B8C466444A14200D8ED
:102620000DE1A01A424612041A4393464B465946FE
:102630001B0C1D0004930B0449460904090C0C00F3
:102640001B0C5C43120C6B43884651436A43250CB8
:10265000AC465B186344994203D9802149028C46F9
:102660006244190C24041B04240C8A181C1990427F
:1026700000D29EE000D199E03C1BA742BF41009DE3
:10268000801A7F42C01B854200D10CE10299FDF700
:10269000A5FD039A0B044243210C070019438A420B
:1026A00008D9AC466144013F8D4203D88A4201D922
:1026B000871E6144881A0299FDF790FD039A24044D
:1026C00042430904240C03000C43A24209D9009997
:1026D000013B8C466444A14203D8A24201D9831E27
:1026E00064444146A41A3A041A43049D13041B0C83
:1026F000594347466B439C46100C47430B0CBC4464
:10270000634468439F4203D980256D02AC46604410
:102710001F0C09041B04090C3F185B18BC4206D3AC
:1027200002D001231A4379E6002B00D176E6009807
:10273000511E84466444844200D2A8E0BC4200D2C8
:10274000D6E000D1E0E00A00EBE70122524201218D
:10275000C91A382900DD50E61F2976DD1F204042C6
:10276000C31A5846D8400300202904D05846694966
:10277000514488400243511E8A411A4307231900DD
:102780000024114013420CD00F231340042B00D11E
:10279000BEE0111D91429B410A005B4259075B025A
:1027A0001C0BD2080A439046002319E6A74200D327
:1027B00062E75B46009D013B4F4405934F459B41BB
:1027C000AC465B426344C018854233D2824200D992
:1027D00081E07DD0059B9B464EE7424500D9E0E66F
:1027E0004B46DC07580843465B081C434346DF075B
:1027F000DEE6FDF737FD15239C4684440200634660
:1028000020321C2B00DC39E623000838834099462F
:102810000023984641E6FDF725FD0200030015322E
:1028200020331C2A00DC5BE6009908388140002236
:102830008B4662E68542CDD1B945CBD8C6E7A242E8
:1028400000D8EEE6831E6444EBE63348140050449F
:1028500082405B4617008340CC407A1E9741234359
:102860003B431A005B46CB40510709D00F21114072
:10287000042905D0111D9142924152429B180A0031
:1028800019028BD50022012300249046A8E50A00F6
:10289000BC4200D045E74B4500D042E7BEE580246E
:1028A0005B46240356E61D4B1D4A5344924500DA0D
:1028B0004BE7012149420A1D8A42894149428B4422
:1028C000B4E50F211140042900D1AFE51100F2E772
:1028D000BC4200D87EE702235B429C4600994F44ED
:1028E0004F459B41E3448C465B426344C018C3E6BA
:1028F0004946009D480048458941AC4649426144EB
:102900008146023A6418C3E79945F1D30A00C2E749
:10291000002343E73E0400001E040000FF03000004
:1029200002FCFFFFF0B557464E46DE464546E0B591
:1029300089B0009201930B031B0B9A46CA0F4B0000
:10294000040091465B0D00D1BCE1D84A934200D10E
:102950004AE15146420FC9000A438021090411434C
:10296000C2009046D24A8A469C1800230025039351
:10297000009E019F3B031B0B9B46FA0F7B00300020
:102980005B0D049200D16FE1C84A934200D153E13C
:102990005946720FC9000A43802109041143C44AF1
:1029A0008B46944600216344F0001B195C1C0A2DE1
:1029B00000DD26E14E46049A5640F2B20092022D06
:1029C00000DCA8E10122AA40A6271500FF003A403A
:1029D0003D4200D013E19027BF003D4200D016E2F7
:1029E00088222A4200D0EFE1414642460904090C00
:1029F0000D00170C020C0004000C4543AC4605000A
:102A000016007D43A8460D007E43039204963200D3
:102A1000039E75436646360CB14645444D44A84571
:102A200005D91600802252029046464404962E0C88
:102A3000059666463604360CB4462D046544069564
:102A40005D462D0CA9465D460E002D042D0C6E43EF
:102A5000B4462E007E43B3464E46714359448846E1
:102A60006146090C414477438B4503D980225202C9
:102A7000904647440E0CB0463E00464407966646D4
:102A80003704059E3F0CB4460904C9198C446646B8
:102A900005965646360CB446564637043F0C3E0063
:102AA0004643B04666464643B24646466046360C06
:102AB000B346039A50437A4352445A44924503D949
:102AC00080267602B2465044160CB24682444046F6
:102AD000120490460004000C3A004E4680446046C2
:102AE0006A4377434543704384467819170C3F186F
:102AF000BD4203D9802040028146CC44059D049804
:102B0000A946079E484488428941B14612043D04C3
:102B1000120CAA184A44494255184044A946404557
:102B2000AD41C8466D42AB46B242924189458941AA
:102B3000D044C344494252420A43AB45AD41D0451B
:102B400089416D4249420D4359463F0CD2195219F1
:102B500062445202C90D069D11438A46410229432F
:102B60004D1EA941C00D08435946490208438046FD
:102B7000D20100D473E101224308024013435246BC
:102B8000D2071343984653465B089A46009B9946E2
:102B9000484BE318002B00DCE5E0424652070AD020
:102BA0000F2241460A40042A05D004314145924192
:102BB0008846524292445246D20106D552463E4B76
:102BC0001A4080239246DB00E3183C4A934200DD22
:102BD0009DE04246D108524652070A4351465B05E2
:102BE0004C02240B5B0D19E052460243904600D084
:102BF000B3E01C000223924608250393B8E6009B2D
:102C00009946039B022B00D181E0032B00D1F5E014
:102C1000039B012BBCD100230024002210004A4654
:102C20001B052343D2071343190009B0F0BCBB4670
:102C3000B246A946A046F0BD5B46009E1E431B4B14
:102C4000E318002E00D181E003224E461543049A7A
:102C50005640F2B2009280221201944664440A2D3A
:102C600000DDB7E00321ADE65B46009A134365D073
:102C70005B46002B00D1E2E05846FDF7F3FA020074
:102C800003000B3A1D27009EBA1A19005846D64079
:102C90000839884032000243009893468840084A29
:102CA000E31A94460021634480E6C046FF07000013
:102CB00001FCFFFFFF030000FFFFFFFEFE07000017
:102CC0000DFCFFFF53460343984630D05346002B7C
:102CD00000D1A2E05046FDF7C5FA0B235B429C46AB
:102CE0000200844466461D239B1B260011005046AB
:102CF000DE4008398840330003439A4623008B4066
:102D000098460023694C0025A41A039330E600245A
:102D10000022674B82E7013D012D00D964E6009B4C
:102D200099460229F3D0DA468046039170E70023E2
:102D30009A46013304250024039319E60022013347
:102D40001D4393462300002001212FE60222154354
:102D5000002200209346022128E61C00032380461F
:102D60000C25039304E60121C91A382900DD52E736
:102D70001F2978DD1F225242D31A5246DA4013002F
:102D8000202907D04B4A4146944652466444A2400B
:102D9000114388464246511E8A411A4307231900AF
:102DA0000024114013420BD00F231340042B7BD07F
:102DB000131D9342A4411A00644261076402240B6C
:102DC000D20800230A4329E7049BDA469946804645
:102DD000039116E70F2D0DD180245346240323427F
:102DE0000CD05B46234209D11C43049B0200994648
:102DF0002F4B13E7049BDA469946804680245346BE
:102E000024031C4324034246294B240B06E70023DA
:102E1000802499462403264B00E7FDF723FA152367
:102E20009C4684440200634620321C2B00DC59E798
:102E3000002398462300083883409A4661E7FDF74F
:102E400011FA02000300153220331C2A00DC19E7B6
:102E500002000099083A914000208B461FE7009A33
:102E60001C00914694E6144B52469C4643466444EB
:102E7000A240CB401A434346A340581E83415446C8
:102E80001A43CC40530709D00F231340042B05D01D
:102E9000131D934292415242A4181A0023028CD56A
:102EA000012300240022B9E6002486E70DFCFFFF81
:102EB000FF0700003E0400001E040000F0B5574666
:102EC0004E464546DE46E0B583B0009001910E03C4
:102ED0004D00CC0F710A009E5F00760F0E430099E3
:102EE00000920193C80019037B0D9A46B446009ED8
:102EF000019FFB0F9946CA4A4B0A710F1943F30011
:102F0000834698461F006D0D924500D1C4E0012311
:102F10004E465E405346B146EB1AB44200D17AE0C9
:102F2000002B00DC24E35646002E00D1D4E095426D
:102F300000D164E10126382B16DC802212041143F3
:102F40001F2B00DDD6E120220E004746D21ADF40BB
:102F500096403E4347469740D9403A006346571E45
:102F6000BA415B1A9C461643861BB04280416346B9
:102F700040421F1A3B0200D438E17F027F0A002F33
:102F800000D114E13800FDF76DF90300083B202162
:102F90003000CA1AD0409F4002009E403A439D42F2
:102FA00000DD7AE1581B0130091A37008E40C74016
:102FB000731E9E411300C2408B403E430025170004
:102FC0001E43730709D00F233340042B05D0331D54
:102FD000B342B6417642BF191E003B0200D49AE2CA
:102FE0008F4A6B1C934200D106E18E4D5B053D403C
:102FF0005B0D6A07F6086D0232432D0B1B052B4350
:10300000E40723431000190003B0F0BCBB46B246EE
:10301000A946A046F0BD002B00DCC4E25646002EB7
:1030200000D0BAE046460E4300D1EAE05E1EB1464B
:10303000012B00D1AAE1934200D1E0E04B460126EA
:10304000382B11DC1F2B00DDB5E120220E00474696
:10305000D21A9640DF403E43474697403A00D94057
:10306000571EBA418C44164336188642804140426E
:10307000604407003B0200D4B8E0694B01359D4233
:1030800000D1B8E00121674B72081F4031400A436C
:10309000FE0716437F0894E7634BEA1843460B4349
:1030A0002CD04C4530D0002A5DD0002D00D1F8E066
:1030B00043464C468C46D80863465A070243D90813
:1030C0000B001343002B00D147E280252D030D4355
:1030D0002D03534B2D0B91E746460E4300D190E054
:1030E0005E1EB146012B00D15CE1934200D186E027
:1030F0004B460126382B00DD36E721E74E460123FB
:103100005E40B1464C45CED1002A00D190E0002D62
:1031100000D004E153466246024300D1C8E15A1E82
:10312000012B00D1FFE13E4DAB4200D1F7E001237E
:10313000382A10DC1F2A00DDDCE120250600AD1A4C
:103140006346A840AB40D640451EA84133430343E5
:103150006046D040091843444345924152421E0004
:103160005546571886E7314A6B1C134200D082E05F
:10317000424663460A430343002D00D0F5E0002B8E
:1031800000D16AE1002A00D075E10023C708624639
:10319000614652073A43C9083DE095422FD00126C7
:1031A000382B00DD60E78022120411434AE730002B
:1031B000FDF758F8030018331F2B00DCE7E6320058
:1031C000083882409D4200DDA4E05B1B581C1F288C
:1031D00000DCA4E116001F3BDE40202805D0402380
:1031E0001B1A9A40531E9A4116430025730700D0BC
:1031F000E9E62B00D3E02B0000250022FEE6C00804
:103200005AE7C00862466146520702430448C908AB
:10321000834200D154E709035B050D0B5B0DEDE61E
:10322000FF070000FFFF7FFF01F8FFFFFE07000020
:10323000CC4A6B1C134276D163460343002D00D069
:10324000DDE0002B00D150E14346C7080B439ED080
:103250004346C31883428041614440420D18DB0855
:103260002A0200D473E1C04A15406A076D021A436E
:103270002D0B0123C2E64346C61A63465F1AB042CD
:103280009B415B42FF1A3B025ED432003A4300D0BE
:1032900075E6002400230025B0E6B34FED1A174071
:1032A0008FE65346624602435AD05A1E012B00D184
:1032B000C8E0AE4CA34200D1FAE64C460126382ABB
:1032C00010DC1F2A00DD89E020239B1A05006646DA
:1032D00098409E40431E98416346D540D3402E43BC
:1032E0000643C91A43469E1BB04592415242554679
:1032F0008F1A3FE61A000E00203AD640202B05D048
:103300004022D31A994043460B431F007B1E9F4126
:103310003E4329E69449EB1A0A40944637E7434670
:103320008C46D808C8E6914A934200D164E74246E9
:10333000821882428041614440420918CE075208F7
:103340001D0016434F083CE643461E1A6346B0452F
:103350009241C91A01244B4652428F1A1C400EE674
:1033600042464C468C46D0084CE7002B00D0A3E0E8
:10337000002A00D1E7E043464A07DB081A4313005E
:1033800001244846C9080B4304409BE6C6198642FF
:103390008041614440420F183B0251D40123BC4696
:1033A000F0082FE7C61B6346B0428041591A4042DD
:1033B00001250F1ADEE51A000E00203AD640B1466C
:1033C000202B05D04022D31A994043460B431F00BF
:1033D0003E00731E9E414B461E4345E61300654664
:1033E000203BDD40202A05D0402366469B1A9E40A4
:1033F0000643B3465E46731E9E412E4372E7002B82
:103400008DD043460B4300D1F9E66246C00852070F
:10341000634610438022DB081203134207D0CD0815
:10342000154204D14346D8082B0049070843420FF0
:10343000C0005207C0080243190013000B4341E6C5
:1034400002251FE643461E1AB0459241634652428A
:10345000C91A4C4601258F1A8CE5002A00D118E7BD
:1034600043464A07DB0801241A434B4649021C40E5
:103470000D0B0023C2E54346C71A63465D1AB842E6
:103480009B415B42ED1A80231B041D4253D04246F0
:10349000161A62468D1AB045924152420124AD1A65
:1034A0004A4614401D4278D02F4B1D400123A0E511
:1034B00042468C46D008A5E6002A00D19FE6624627
:1034C000C0085207634610438022DB0812031342F0
:1034D000ADD0CD081542AAD143460124D8084B46A9
:1034E00049071C4008432B00A1E743468C46DF08F0
:1034F00000234CE613006546203BDD40202A05D022
:10350000402366469B1A9E400643B3465B465A1EBE
:1035100093412B431FE62B00BC46F00872E62021A6
:103520000026091A46E54044404592416144524212
:1035300006008F1830E73A002A4300D1A9E600239D
:10354000AC46FF0823E6802100240903BDE56A0795
:103550006D021A432D0B002350E500220025034B7A
:103560004CE5C046FE070000FFFF7FFFFF0700009D
:10357000002B00D1F7E553465A1B1300002D00D154
:1035800090E6382A06DC802364461B041C43A446CC
:10359000340096E634000126A4E66A07F608002304
:1035A0003243E90837E6002B00D141E653465A1B67
:1035B000002D01D11300AEE50123382A00DDCAE554
:1035C000802365461B041D43AC46B3E50B00020097
:1035D00070B5164D0C0382B0490000200092019393
:1035E000240B490DDE0FA94204DD1148814203DDA1
:1035F000104BF01802B070BD8020400320430E4CE9
:10360000641A1F2C08DD0D4B5B1AD840030058428A
:10361000002EEFD11800EDE7094B009A9C460300FD
:1036200061448B40E2401343F1E7C046FE030000D3
:103630001D040000FFFFFF7F33040000130400009F
:10364000EDFBFFFF70B542024300C40FFE201B0ECE
:10365000591C550A08420CD0E02189008C466D07A0
:10366000120B63441B051343E4072343280019008E
:1036700070BD002B14D1002D1BD02800FCF7F2FDEB
:103680000A281CDC0B232A001B1ADA40030015331E
:103690009D400E4B12031B1A5B05120B5B0DE1E7FD
:1036A000002D09D0130B802212031A436D07084B1B
:1036B000D8E700230022D5E70022054BD2E703001C
:1036C0002A000B3B9A400025E3E7C046890300002F
:1036D000FF070000F0B55746DE464E464546E0B5CA
:1036E0000D000400E80F83460903D80F090B82463A
:1036F00019488C461F0369005E00490D3F0B760D8B
:10370000814218D086420FD00120B1420DD1BC4574
:103710000BD1944209D1D3451CD0002905D1604674
:103720002043431E984100E00120F0BCBB46B24656
:10373000A946A046F0BD01208E42F6D1614639432C
:103740000F0017432743F0D15B465246981A431E99
:103750009841EAE70020E8E7FF070000F0B5574688
:103760004E464546DE46E0B50D000E034900490DC4
:103770008A46DF0FE90FBC4683B02F4F0400804616
:103780000191580019039146360B090B400DBA45BB
:103790001DD0B8420DD05746002F2AD134430028FF
:1037A00024D10A4336D0002C41D163465800013859
:1037B00015E0114338D15346002B01D12643F4D0F4
:1037C000019B634507D1019B5800013807E0264360
:1037D0002AD1504521D00120019B5F42384303B0DC
:1037E000F0BCBB46B246A946A046F0BD002CDCD0DA
:1037F000E6E70028EFD0019B6345ECD18245EADC87
:10380000E1DB8E42E7D8DED1C845E4D80020C845C8
:10381000E5D2D8E7002CE2D0DDE7114304D1019BCB
:103820006345D8D10020DAE702204042D7E7019B68
:103830006345E6D0CFE7C046FF070000F0B5574626
:103840004E464546DE46E0B50D000E034900490DE3
:103850008A46DF0FE90FBC4683B02E4F0400804636
:103860000191580019039146360B090B400DBA45DA
:103870001ED0B8420DD05746002F27D13443002820
:1038800033D10A4334D0002C40D16346580001386C
:1038900015E0114312D15346002B01D12643F4D039
:1038A000019B63451DD00120019B5F42384306E028
:1038B000264303D15045F6D111431CD0022003B05A
:1038C000F0BCBB46B246A946A046F0BD0028EAD0EF
:1038D000019B6345E7D18245E5DC02DB8E42E2D8FD
:1038E0000ED0019B58000138E9E7002CCDD0D7E776
:1038F000002CE4D0D7E7019B00206345DFD0D2E75E
:10390000C845D0D80020C845D9D2EAE7019B634515
:10391000E4D0C8E7FF070000F8B5C046F8BC08BC13
:103920009E467047F8B5C046F8BC08BC9E46704736
:1039300048656C6C6F20576F726C64202300000028
:1039400000000000003E800052F4F4D00034150066
:103950004FF4F4D0001A0B009DF4F4D0000D0501D3
:103960003BF4F4D00006830275F3F3D00003410466
:10397000EAF2F2D000022C07AEE2E2D00001000829
:1039800000E1E1D00000801000E0E0D00002400340
:10399000334242D0013E800052F4F5D0013415008C
:1039A0004FF4F4D0011A0B009DF4F4D0010D050181
:1039B0003BF4F4D00106830275F3F3D00103410414
:1039C000EAF2F2D001022C07AEE2E2D001010008D7
:1039D00000E1E1D00100801000E0E0D001024003EE
:1039E000334242D0087D0000108888D008682B0040
:1039F00010F1F1D00834150010F5F5D0081A0B00BD
:103A000010F4F4D0080D050010F3F3D0080683007D
:103A100010F2F2D00803E80010E2E2D0000000004B
:103A20000102030400000000000000000102030482
:103A3000060708090102030405060708090A0B0C1A
:103A40000D0E0F1002030405060708090A0B0C0DE2
:103A50000E0F101030313233343536373839616259
:103A6000636465666768696A6B6C6D6E6F707172AE
:103A7000737475767778797A0000000098250008CD
:103A8000D8230008FA2300080C240008FA230008B1
:103A900036250008FA2300080C240008D823000863
:103AA000D8230008362500080C2400080424000848
:0C3AB00004240008042400084425000839
:043ABC00C902000833
:043AC000A102000857
:0C3AC40000127A00010000000400000065
:040000050800216965
:00000001FF
